S0100000506F6E6747616D652E7372656306
S11300000C9438000C9455000C9455000C94550035
S11300100C9455000C9455000C9455000C94550008
S11300200C9455000C9455000C9455000C945500F8
S11300300C9455000C9455000C9455000C945500E8
S11300400C9455000C9455000C9455000C946F00BE
S11300500C9455000C9455000C9455000C945500C8
S11300600C9455000C9455000C9455000C945500B8
S113007011241FBECFEFD4E0DEBFCDBF11E0A0E05E
S1130080B1E0E0E2F1E002C005900D92AE30B107BC
S1130090D9F721E0AEE0B1E001C01D92A431B2076E
S11300A0E1F70E947D000C948E000C940000CF9325
S11300B0C82F8A3019F48DE00E9457005D9BFECF53
S11300C0CCB980E090E0CF91089590BD89B988E1E2
S11300D08AB98AB180688AB98EE880BD08951F9272
S11300E00F920FB60F9211248F938CB18CB98F910C
S11300F00F900FBE0F901F9018950E94820080E011
S113010090E0089580E091E09093110180931001B4
S11301108FE190E00E9465007894FFCFF894FFCFC0
S1110120000000020000000057000000000074
S9030000FC
