S0100000506F6E6747616D652E7372656306
S11300000C9438000C9455000C9455000C94550035
S11300100C9455000C9455000C9455000C94550008
S11300200C9455000C9455000C9455000C945500F8
S11300300C9455000C9455000C9455000C945500E8
S11300400C9455000C9455000C9455000C945500D8
S11300500C9455000C9455000C9455000C945500C8
S11300600C9455000C9455000C9455000C945500B8
S113007011241FBECFEFD4E0DEBFCDBF11E0A0E05E
S1130080B1E0E2E9F1E002C005900D92AE30B107B3
S1130090D9F721E0AEE0B1E001C01D92A431B2076E
S11300A0E1F70E946C000C94C7000C94000090BD12
S11300B089B988E18AB98EE880BD0895CF93C82FA5
S11300C08A3019F48DE00E945E005D9BFECFCCB9AE
S11300D080E090E0CF9108958BE090E00E9457007B
S11300E080E091E0909311018093100181E690E00B
S11300F00E9484002FEF8FE797E0215080409040CA
S1130100E1F700C00000F2CF60911001709111017D
S11301100E948B0008950F931F93CF93DF93FB01ED
S1130120238121FD03C08FEF9FEF2CC022FF16C057
S113013046815781248135814217530744F4A081B5
S1130140B1819D012F5F3F4F318320838C932681A2
S113015037812F5F3F4F3783268314C08B01EC0117
S1130160FB010084F185E02D0995892BE1F6D80186
S113017016968D919C911797019617969C938E9342
S11301801697CE01DF91CF911F910F910895F894A6
S1050190FFCF9B
S111019200000002000000005E0000000000FB
S9030000FC
