:100000000C9438000C94B5010C94EF010C948F0102
:100010000C9455000C9455000C9455000C9455000C
:100020000C9455000C9455000C9455000C945500FC
:100030000C9455000C9455000C9455000C944701F9
:100040000C9455000C9455000C9455000C943901F7
:100050000C9455000C9455000C9455000C945500CC
:100060000C9455000C9455000C9455000C945500BC
:1000700011241FBECFEFD4E0DEBFCDBF11E0A0E062
:10008000B1E0E2E9F1E102C005900D92A839B107B3
:10009000D9F721E0A8E9B1E001C01D92AA3AB20760
:1000A000E1F70E9415020C94C7080C940000CF924F
:1000B000DF92EF92FF9281B3806281BB8EB5806147
:1000C0008EBD8EB588608EBD8FB582608FBD8FB5B9
:1000D0008E7F8FBD8FB580688FBD8FB58F7B8FBDB5
:1000E00089B7806889BF81E090E095BD84BD20E03C
:1000F00030E048EC52E46091980170919901809150
:100100009A0190919B010E94F4036B017C0164B5FC
:1001100075B580E090E00E949504A70196010E94C9
:100120004C050E9466047BBD6ABD8EB58B7F8EBD7B
:100130008EB58D7F8EBD8EB581608EBDFF90EF90A8
:10014000DF90CF90089581B3806281BB81B38064DA
:1001500081BB81B3806881BB86B18E7F86B986B74B
:10016000816086BF8BB780628BBF0895EF92FF924C
:100170000F931F93CF93DF937C010000C0E0D0E08A
:100180000DC087010C0F1D1F80E097E10E94010147
:10019000F8018083F2E0FA95F1F72196C430D10599
:1001A00084F3DF91CF911F910F91FF90EF9008950D
:1001B000CF93C82F8A3019F48DE00E94D8005D9B40
:1001C000FECFCCB980E090E0CF91089590BD89B981
:1001D00088E18AB98AB180688AB98EE880BD0895BD
:1001E00085B7806885BF80B7806280BF089520E0B2
:1001F00031E03093A7012093A601FB018083808129
:100200000895FC01808108950F931F93CF938C0173
:10021000FC01628185E30E947B02F80140814295E6
:10022000440F407E60EE82E30E949A02F801408112
:1002300051815695479556954795569547956FEF39
:1002400081E30E949A02C0E009C0F801EC0FF11DA1
:10025000638186E38C0F0E947B02CF5FF80182816D
:10026000C81798F381E80E949102CF911F910F91D6
:1002700008951F920F920FB60F9211248F938CB195
:100280008CB98F910F900FBE0F901F9018951F92F1
:100290000F920FB60F921124CF92DF92EF92FF923E
:1002A0002F933F934F935F936F937F938F939F937E
:1002B000AF93BF93EF93FF9320E030E048EC52E41C
:1002C000609198017091990180919A0190919B01A0
:1002D0000E94F4036B017C0164B575B580E090E089
:1002E0000E949504A70196010E944C050E94660495
:1002F0007BBD6ABDFF91EF91BF91AF919F918F91AF
:100300007F916F915F914F913F912F91FF90EF906F
:10031000DF90CF900F900FBE0F901F9018951F92F7
:100320000F920FB60F9211242F933F934F935F9329
:100330006F937F938F939F93AF93BF93EF93FF93AD
:1003400080EA91E00E94B600FF91EF91BF91AF91DA
:100350009F918F917F916F915F914F913F912F91DD
:100360000F900FBE0F901F9018951F920F920FB60F
:100370000F9211242F933F934F935F936F937F932B
:100380008F939F93AF93BF93EF93FF9380919F01C0
:100390008F9380919E018F9380919D018F93809187
:1003A0009C018F938EE091E09F938F930E94B905FB
:1003B0000F900F900F900F900F900F90FF91EF9173
:1003C000BF91AF919F918F917F916F915F914F916D
:1003D0003F912F910F900FBE0F901F9018951F9275
:1003E0000F920FB60F9211242F933F934F935F9369
:1003F0006F937F938F939F93AF93BF93EF93FF93ED
:1004000083E391E00E94CF05FF91EF91BF91AF91FF
:100410009F918F917F916F915F914F913F912F911C
:100420000F900FBE0F901F901895CF93DF93CDB70D
:10043000DEB765970FB6F894DEBF0FBECDBF80E084
:1004400091E09093A7018093A6018FE190E00E9434
:10045000E6000E94F0000E9457000E94A3000E9444
:10046000C00219821A821B821C821D821E821F8278
:1004700018861A8619869E01275F3F4F40EA51E091
:10048000BE016B5F7F4FCE0101960E94E602BE0166
:100490006B5F7F4FCE0101960E942C0321E030E07C
:1004A0003C872B8791E09D878E871F928F9387E5EE
:1004B00091E09F938F930E94B905CE010B960E9405
:1004C00004010F900F900F900F90D5CFCF93C82FAE
:1004D00088B38F7E88BB83E00E947A038C2F0E94B2
:1004E0007A0380E00E947A030E947E0398B39061B1
:1004F00098BBCF910895CF93DF93D82FC62F88B3A1
:100500008F7E88BB82E00E947A038D2F0E947A033F
:100510008C2F0E947A0388B3806188BBDF91CF91D2
:10052000089598B39F7E98BB0E947A0388B3806138
:1005300088BB08951F93CF93DF93182FD62FC42F16
:1005400088B38F7E88BB85E00E947A03812F0E944A
:100550007A038D2F0E947A038C2F0E947A0388B32E
:10056000806188BBDF91CF911F91089588B38F7E02
:1005700088BB80EC0E947A0388B3806188BB0895B1
:100580000E9474030E94B6028EE00E946602807E82
:10059000803831F084E691E00E94CF0581E0089533
:1005A00043E06FEF8AE20E949A0241EB6FEF89E22B
:1005B0000E949A0245E067EC88E20E949A0240E0BD
:1005C00060EE8FE00E949A0280E00895EF92FF9221
:1005D0000F931F93CF93DF937C018B01EA01CA0134
:1005E0000E94B60060E074E182E50E94F7006B8132
:1005F00070E080E090E00E94950429EC38EC48E43B
:100600005FE30E944C0520E030E048EC52E40E9499
:100610008203F7016083718382839383688170E032
:1006200080E090E00E94950429EC38EC48E45FE318
:100630000E944C0520E030E048EC52E40E94820326
:10064000F8016083718382839383DF91CF911F913F
:100650000F91FF90EF900895CF92DF92EF92FF926B
:10066000CF93DF93EB01FC01C080D180E280F38067
:1006700020E030E04CE852E4C701B6010E94470593
:10068000882324F520E030E04CE852ECC701B601A5
:100690000E94EF031816E4F4C880D980EA80FB803A
:1006A00020E030E04CE852E4C701B6010E94470563
:1006B000882384F420E030E04CE852ECC701B60116
:1006C0000E94EF03181644F083E007C081E005C0E4
:1006D00080E003C082E001C084E0DF91CF91FF9011
:1006E000EF90DF90CF90089587B3806B87BB81E553
:1006F0008DB908958FB9779BFECF0895779BFECF74
:100700008FB108955058BB27AA270E949A030C94D2
:100710000D050E94FF0438F00E94060520F039F410
:100720009F3F19F426F40C94FC040EF4E095E7FBCB
:100730000C94F604E92F0E941E0558F3BA176207BD
:1007400073078407950720F079F4A6F50C9440050B
:100750000EF4E0950B2EBA2FA02D0B01B9019001DC
:100760000C01CA01A0011124FF27591B99F0593F20
:1007700050F4503E68F11A16F040A22F232F342F68
:100780004427585FF3CF469537952795A795F040B6
:100790005395C9F77EF41F16BA0B620B730B840BCB
:1007A000BAF09150A1F0FF0FBB1F661F771F881F83
:1007B000C2F70EC0BA0F621F731F841F48F48795DB
:1007C00077956795B795F7959E3F08F0B0CF9395CD
:1007D000880F08F09927EE0F9795879508950E9446
:1007E000D20408F481E008950E9408040C940D05D9
:1007F0000E94060558F00E94FF0440F029F45F3F74
:1008000029F00C94F60451110C9441050C94FC044D
:100810000E941E0568F39923B1F3552391F3951BAC
:10082000550BBB27AA2762177307840738F09F5F11
:100830005F4F220F331F441FAA1FA9F335D00E2E7E
:100840003AF0E0E832D091505040E695001CCAF7EB
:100850002BD0FE2F29D0660F771F881FBB1F2617AE
:1008600037074807AB07B0E809F0BB0B802DBF0185
:10087000FF2793585F4F3AF09E3F510578F00C9454
:10088000F6040C9441055F3FE4F3983ED4F386955B
:1008900077956795B795F7959F5FC9F7880F911D75
:1008A0009695879597F90895E1E0660F771F881F61
:1008B000BB1F621773078407BA0720F0621B730B14
:1008C000840BBA0BEE1F88F7E09508950E94260569
:1008D00088F09F5798F0B92F9927B751B0F0E1F001
:1008E000660F771F881F991F1AF0BA95C9F714C0B1
:1008F000B13091F00E944005B1E008950C9440059C
:10090000672F782F8827B85F39F0B93FCCF38695E9
:1009100077956795B395D9F73EF490958095709546
:1009200061957F4F8F4F9F4F0895E89409C097FBC3
:100930003EF490958095709561957F4F8F4F9F4FB6
:100940009923A9F0F92F96E9BB279395F6958795FA
:1009500077956795B795F111F8CFFAF4BB0F11F4BD
:1009600060FF1BC06F5F7F4F8F4F9F4F16C0882364
:1009700011F096E911C0772321F09EE8872F762F9A
:1009800005C0662371F096E8862F70E060E02AF0DB
:100990009A95660F771F881FDAF7880F96958795C7
:1009A00097F90895990F0008550FAA0BE0E8FEEF9C
:1009B00016161706E807F907C0F012161306E40723
:1009C000F50798F0621B730B840B950B39F40A261C
:1009D00061F0232B242B252B21F408950A2609F4FA
:1009E000A140A6958FEF811D811D089597F99F67FE
:1009F00080E870E060E008959FEF80EC08950024A7
:100A00000A941616170618060906089500240A9473
:100A100012161306140605060895092E0394000CF9
:100A200011F4882352F0BB0F40F4BF2B11F460FF88
:100A300004C06F5F7F4F8F4F9F4F089557FD9058B1
:100A4000440F551F59F05F3F71F04795880F97FB92
:100A5000991F61F09F3F79F087950895121613064C
:100A60001406551FF2CF4695F1DF08C0161617067B
:100A70001806991FF1CF86957105610508940895B0
:100A8000E894BB2766277727CB0197F908950E9442
:100A9000D20408F48FEF08950E945F050C940D05B1
:100AA0000E94FF0438F00E94060520F0952311F003
:100AB0000C94F6040C94FC0411240C9441050E943F
:100AC0001E0570F3959FC1F3950F50E0551F629F6F
:100AD000F001729FBB27F00DB11D639FAA27F00D97
:100AE000B11DAA1F649F6627B00DA11D661F829FBE
:100AF0002227B00DA11D621F739FB00DA11D621FA3
:100B0000839FA00D611D221F749F3327A00D611DBF
:100B1000231F849F600D211D822F762F6A2F1124A1
:100B20009F5750409AF0F1F088234AF0EE0FFF1FD4
:100B3000BB1F661F771F881F91505040A9F79E3F2B
:100B4000510580F00C94F6040C9441055F3FE4F3EA
:100B5000983ED4F3869577956795B795F795E79581
:100B60009F5FC1F7FE2B880F911D9695879597F98A
:100B70000895A0E0B0E0EFEBF5E00C94A008AE0122
:100B80004B5F5F4FFA0161917191AF018091A601B6
:100B90009091A7010E94FF05E2E00C94BC080F931E
:100BA0001F93CF93DF93E091A601F091A7012381DA
:100BB00021FF1BC08C01D0E0C0E0F80181918F01C2
:100BC0006091A6017091A701DB011896ED91FC914F
:100BD0001997882331F00995892B79F3DFEFCFEF4F
:100BE000ECCF8AE00995892B19F08FEF9FEF02C0B7
:100BF0008D2F9C2FDF91CF911F910F910895ABE026
:100C0000B0E0E5E0F6E00C9490086C017B018A010D
:100C1000FC0117821682838181FFCCC1CE0101962F
:100C20003C01F6019381F70193FD859193FF81913A
:100C30007F01882309F4BAC1853239F493FD859187
:100C400093FF81917F01853229F4B60190E00E94E3
:100C5000F607E7CF912C212C312CFFE1F315D8F0CA
:100C60008B3279F038F4803279F08332A1F4232D7D
:100C700020611DC08D3261F0803369F4232D216025
:100C800016C0832D8260382EE32DE4603E2E2AC0EC
:100C9000F32DF8601DC037FC2DC020ED280F2A3041
:100CA00040F08E32B9F436FC81C1232D2064322EFF
:100CB00019C036FE06C08AE0989E200D1124922E9F
:100CC00011C0EAE02E9E200D1124222EF32DF06299
:100CD0003F2E08C08C3621F4832D8068382E02C048
:100CE000883641F4F70193FD859193FF81917F014F
:100CF0008111B3CF982F9F7D9554933028F40C5FCA
:100D00001F4F9FE399830DC0833631F0833771F015
:100D1000833509F059C021C0F801808189830E5FB5
:100D20001F4F88248394912C530113C02801F2E0B3
:100D30004F0E511CF801A080B18036FE03C0692D12
:100D400070E002C06FEF7FEFC5010E94EB074C011E
:100D50008201F32DFF773F2E16C0280122E0420EBC
:100D6000511CF801A080B18036FE03C0692D70E0EF
:100D700002C06FEF7FEFC5010E94E0074C01F32D29
:100D8000F0683F2E820133FC1BC0822D90E0881654
:100D90009906B0F4B60180E290E00E94F6072A942A
:100DA000F4CFF50137FC859137FE81915F01B601E3
:100DB00090E00E94F60721102A9421E0821A9108FF
:100DC0008114910471F7E8C0843611F0893641F539
:100DD000F80137FE07C060817181828193810C5FC9
:100DE0001F4F08C060817181072E000C880B990B82
:100DF0000E5F1F4FF32DFF763F2E97FF09C0909592
:100E00008095709561957F4F8F4F9F4FF0683F2E73
:100E10002AE030E0A3010E943208882E861845C0DF
:100E2000853731F4232D2F7EB22E2AE030E025C005
:100E3000932D997FB92E8F36C1F018F4883579F04B
:100E4000B5C0803719F0883721F0B0C0E92FE061D4
:100E5000BE2EB4FE0DC0FB2DF460BF2E09C034FEC3
:100E60000AC0292F2660B22E06C028E030E005C057
:100E700020E130E002C020E132E0F801B7FE07C017
:100E800060817181828193810C5F1F4F06C06081F8
:100E9000718180E090E00E5F1F4FA3010E94320835
:100EA000882E8618FB2DFF773F2E36FE0DC0232D92
:100EB0002E7FA22E891458F434FE0BC032FC09C0D8
:100EC000832D8E7EA82E05C0B82CA32C03C0B82C71
:100ED00001C0B92CA4FE0FC0FE01E80DF11D8081F8
:100EE000803321F49A2D997EA92E09C0A2FE06C056
:100EF000B394B39404C08A2D867809F0B394A3FC0C
:100F000011C0A0FE06C0B21488F4280C922C9B18C5
:100F10000EC0B21460F4B60180E290E00E94F607C1
:100F2000B394F7CFB21418F42B1802C0982C212CCC
:100F3000A4FE10C0B60180E390E00E94F607A2FE76
:100F400017C0A1FC03C088E790E002C088E590E0EC
:100F5000B6010CC08A2D867859F0A1FE02C08BE242
:100F600001C080E2A7FC8DE2B60190E00E94F60786
:100F7000891438F4B60180E390E00E94F6079A9451
:100F8000F7CF8A94F301E80DF11D8081B60190E05E
:100F90000E94F6078110F5CF222009F442CEB60157
:100FA00080E290E00E94F6072A94F6CFF60186814F
:100FB000978102C08FEF9FEF2B96E2E10C94AC0873
:100FC000FC010590615070400110D8F78095909514
:100FD0008E0F9F1F0895FC01615070400190011019
:100FE000D8F7809590958E0F9F1F08950F931F93AC
:100FF000CF93DF93FB01238121FD03C08FEF9FEF90
:101000002CC022FF16C046815781248135814217AA
:10101000530744F4A081B1819D012F5F3F4F31837D
:1010200020838C93268137812F5F3F4F3783268320
:1010300014C08B01EC01FB010084F185E02D0995C2
:10104000892BE1F6D80116968D919C911797019600
:1010500017969C938E931697CE01DF91CF911F9197
:101060000F910895FA01AA27283051F1203181F11A
:10107000E8946F936E7F6E5F7F4F8F4F9F4FAF4FA0
:10108000B1E03ED0B4E03CD0670F781F891F9A1FB3
:10109000A11D680F791F8A1F911DA11D6A0F711D67
:1010A000811D911DA11D20D009F468943F912AE073
:1010B000269F11243019305D3193DEF6CF0108955B
:1010C000462F4770405D4193B3E00FD0C9F7F6CF8C
:1010D000462F4F70405D4A3318F0495D31FD405254
:1010E000419302D0A9F7EACFB4E0A69597958795EA
:1010F00077956795BA95C9F70097610571050895C9
:101100009B01AC010A2E0694579547953795279574
:10111000BA95C9F7620F731F841F951FA01D08950C
:101120002F923F924F925F926F927F928F929F92F7
:10113000AF92BF92CF92DF92EF92FF920F931F93E5
:10114000CF93DF93CDB7DEB7CA1BDB0B0FB6F89496
:10115000DEBF0FBECDBF09942A88398848885F84D6
:101160006E847D848C849B84AA84B984C884DF8047
:10117000EE80FD800C811B81AA81B981CE0FD11D2B
:101180000FB6F894DEBF0FBECDBFED010895F89401
:02119000FFCF8F
:101192000000000200000000D800000000004255DC
:1011A20054544F4E207072657373656420436F6CA4
:1011B200756D6E3A2025642C20506167653A2025B2
:1011C200640A0043414E20636F6E74726F6C6C65EB
:1011D2007220696E746572727570742063617567CE
:1011E2006874202F215C00706F736974696F6E20C0
:1011F20025640A00204D4350323531352069732071
:101202004E4F5420696E20636F6E66696775726116
:1012120074696F6E206D6F646520616674657220FB
:08122200726573657420210060
:00000001FF
