S0100000506F6E6747616D652E7372656306
S11300000C9438000C9455000C9455000C94550035
S11300100C9455000C9455000C9455000C94550008
S11300200C9455000C9455000C9455000C945500F8
S11300300C9455000C9455000C9455000C945500E8
S11300400C9455000C9455000C9455000C94950098
S11300500C9455000C9455000C9455000C945500C8
S11300600C9455000C9455000C9455000C945500B8
S113007011241FBECFEFD4E0DEBFCDBF11E0A0E05E
S1130080B1E0E8EDF7E002C005900D92AC34B107A1
S1130090D9F721E0ACE4B1E001C01D92A235B2076A
S11300A0E1F70E94C2000C94EA030C940000CF9381
S11300B0C82F8A3019F48DE00E9457005D9BFECF53
S11300C0CCB980E090E0CF91089590BD89B988E1E2
S11300D08AB98AB180688AB98EE880BD089585B7E7
S11300E0806885BF80B7806280BF089520E031E0DA
S11300F030934F0120934E01FB01F05F8083908188
S11301001F928F931F929F937F936F938EE091E042
S11301109F938F930E940C018DB79EB708960FB6DC
S1130120F8949EBF0FBE8DBF08951F920F920FB615
S11301300F9211248F938CB18CB98F910F900FBEB5
S11301400F901F90189581B3806281BB8EB58F7E0E
S11301508EBD8EB588608EBD8FB58D7F8FBD8FB5FA
S113016081608FBD8FB580688FBD8FB58F7B8FBD4C
S11301708EB58B7F8EBD8EB58D7F8EBD8EB5816025
S11301808EBD089580E091E090934F0180934E01DD
S11301908FE190E00E9465000E946F000E94A3001E
S11301A00E94D300FDCF60E078E181E50E947600F3
S11301B02FEF8FE797E0215080409040E1F700C097
S11301C0000060E07FE181E50E9476002FEF8FE779
S11301D097E0215080409040E1F700C000006FEFAD
S11301E07FE181E50E9476002FEF8FE797E02150B1
S11301F080409040E1F700C0000060E076E181E5D6
S11302000E9476002FEF8FE797E0215080409040C6
S1130210E1F700C00000C7CFA0E0B0E0E2E1F1E008
S11302200C94C303AE014B5F5F4FFA01619171916E
S1130230AF0180914E0190914F010E942201E2E0B2
S11302400C94DF03ABE0B0E0E8E2F1E00C94B3031C
S11302506C017B018A01FC0117821682838181FF74
S1130260CCC1CE0101963C01F6019381F70193FDC7
S1130270859193FF81917F01882309F4BAC1853266
S113028039F493FD859193FF81917F01853229F49F
S1130290B60190E00E941903E7CF912C212C312C58
S11302A0FFE1F315D8F08B3279F038F4803279F02D
S11302B08332A1F4232D20611DC08D3261F080337F
S11302C069F4232D216016C0832D8260382EE32D1E
S11302D0E4603E2E2AC0F32DF8601DC037FC2DC00B
S11302E020ED280F2A3040F08E32B9F436FC81C15B
S11302F0232D2064322E19C036FE06C08AE0989E53
S1130300200D1124922E11C0EAE02E9E200D1124FE
S1130310222EF32DF0623F2E08C08C3621F4832D5B
S11303208068382E02C0883641F4F70193FD859128
S113033093FF81917F018111B3CF982F9F7D9554B5
S1130340933028F40C5F1F4F9FE399830DC08336CD
S113035031F0833771F0833509F059C021C0F801B9
S1130360808189830E5F1F4F88248394912C5301CD
S113037013C02801F2E04F0E511CF801A080B18097
S113038036FE03C0692D70E002C06FEF7FEFC50138
S11303900E940E034C018201F32DFF773F2E16C0FD
S11303A0280122E0420E511CF801A080B18036FEE3
S11303B003C0692D70E002C06FEF7FEFC5010E949A
S11303C003034C01F32DF0683F2E820133FC1BC064
S11303D0822D90E088169906B0F4B60180E290E090
S11303E00E9419032A94F4CFF50137FC859137FE56
S11303F081915F01B60190E00E94190321102A94B3
S113040021E0821A91088114910471F7E8C08436BE
S113041011F0893641F5F80137FE07C0608171811A
S1130420828193810C5F1F4F08C060817181072E08
S1130430000C880B990B0E5F1F4FF32DFF763F2E98
S113044097FF09C090958095709561957F4F8F4F68
S11304509F4FF0683F2E2AE030E0A3010E9455032D
S1130460882E861845C0853731F4232D2F7EB22E71
S11304702AE030E025C0932D997FB92E8F36C1F044
S113048018F4883579F0B5C0803719F0883721F031
S1130490B0C0E92FE061BE2EB4FE0DC0FB2DF460A8
S11304A0BF2E09C034FE0AC0292F2660B22E06C012
S11304B028E030E005C020E130E002C020E132E075
S11304C0F801B7FE07C060817181828193810C5F5E
S11304D01F4F06C06081718180E090E00E5F1F4F66
S11304E0A3010E945503882E8618FB2DFF773F2E0B
S11304F036FE0DC0232D2E7FA22E891458F434FE0F
S11305000BC032FC09C0832D8E7EA82E05C0B82CEA
S1130510A32C03C0B82C01C0B92CA4FE0FC0FE014B
S1130520E80DF11D8081803321F49A2D997EA92E46
S113053009C0A2FE06C0B394B39404C08A2D867881
S113054009F0B394A3FC11C0A0FE06C0B21488F451
S1130550280C922C9B180EC0B21460F4B60180E2F1
S113056090E00E941903B394F7CFB21418F42B1837
S113057002C0982C212CA4FE10C0B60180E390E0A8
S11305800E941903A2FE17C0A1FC03C088E790E0F3
S113059002C088E590E0B6010CC08A2D867859F037
S11305A0A1FE02C08BE201C080E2A7FC8DE2B6018D
S11305B090E00E941903891438F4B60180E390E0B6
S11305C00E9419039A94F7CF8A94F301E80DF11D60
S11305D08081B60190E00E9419038110F5CF22209A
S11305E009F442CEB60180E290E00E9419032A94F5
S11305F0F6CFF6018681978102C08FEF9FEF2B968D
S1130600E2E10C94CF03FC010590615070400110AD
S1130610D8F7809590958E0F9F1F0895FC01615027
S1130620704001900110D8F7809590958E0F9F1F10
S113063008950F931F93CF93DF93FB01238121FD33
S113064003C08FEF9FEF2CC022FF16C04681578155
S1130650248135814217530744F4A081B1819D015F
S11306602F5F3F4F318320838C93268137812F5F07
S11306703F4F3783268314C08B01EC01FB010084B8
S1130680F185E02D0995892BE1F6D80116968D9117
S11306909C911797019617969C938E931697CE016B
S11306A0DF91CF911F910F910895FA01AA27283065
S11306B051F1203181F1E8946F936E7F6E5F7F4F2B
S11306C08F4F9F4FAF4FB1E03ED0B4E03CD0670FA7
S11306D0781F891F9A1FA11D680F791F8A1F911DFA
S11306E0A11D6A0F711D811D911DA11D20D009F44A
S11306F068943F912AE0269F11243019305D31938C
S1130700DEF6CF010895462F4770405D4193B3E074
S11307100FD0C9F7F6CF462F4F70405D4A3318F01B
S1130720495D31FD4052419302D0A9F7EACFB4E0CC
S1130730A6959795879577956795BA95C9F7009784
S11307406105710508959B01AC010A2E0694579525
S1130750479537952795BA95C9F7620F731F841F7C
S1130760951FA01D08952F923F924F925F926F9212
S11307707F928F929F92AF92BF92CF92DF92EF922D
S1130780FF920F931F93CF93DF93CDB7DEB7CA1BAE
S1130790DB0B0FB6F894DEBF0FBECDBF09942A88D9
S11307A0398848885F846E847D848C849B84AA8481
S11307B0B984C884DF80EE80FD800C811B81AA810E
S11307C0B981CE0FD11D0FB6F894DEBF0FBECDBFD9
S10B07D0ED010895F894FFCF38
S11307D800000002000000005700000000007661DD
S11307E86C75652073746F72656420617420657814
S11307F8745F6D656D5B3078253038785D2069737A
S1130808203078253038782C2073686F756C642014
S10F08186265203078253038780A000032
S9030000FC
