S0100000506F6E6747616D652E7372656306
S11300000C9438000C9455000C9455000C942A015F
S11300100C9455000C9455000C9455000C94550008
S11300200C9455000C9455000C9455000C945500F8
S11300300C9455000C9455000C9455000C94E2005B
S11300400C9455000C9455000C9455000C94D40059
S11300500C9455000C9455000C9455000C945500C8
S11300600C9455000C9455000C9455000C945500B8
S113007011241FBECFEFD4E0DEBFCDBF11E0A0E05E
S1130080B1E0E4E5FCE002C005900D92AA33B107AB
S1130090D9F721E0AAE3B1E001C01D92A034B20770
S11300A0E1F70E946C010C9428060C94000081B3C3
S11300B0806281BB81B3806481BB81B3806881BB72
S11300C086B18E7F86B986B7816086BF8BB7806222
S11300D08BBF08950F931F93CF93DF9300D000D06D
S11300E0CDB7DEB719821A821B821C82000000E0A1
S11300F010E010C080E097E10E94D100E1E0F0E060
S1130100EC0FFD1FE00FF11F808382E08A95F1F769
S11301100F5F1F4F043011056CF38A811F928F9378
S11301201F9281E08F9382E191E09F938F930E94CD
S11301304A030F900F900F900F900F900F900F9015
S11301400F900F900F90DF91CF911F910F91089511
S1130150CF93C82F8A3019F48DE00E94A8005D9BCC
S1130160FECFCCB980E090E0CF91089590BD89B9DD
S113017088E18AB98AB180688AB98EE880BD089519
S113018085B7806885BF80B7806280BF089520E00E
S113019031E030933D0120933C01FB018083808159
S11301A00895FC01808108951F920F920FB60F925B
S11301B011248F938CB18CB98F910F900FBE0F9037
S11301C01F9018951F920F920FB60F921124CF9281
S11301D0DF92EF92FF922F933F934F935F936F932E
S11301E07F938F939F93AF93BF93EF93FF9320E0FD
S11301F030E048EC52E460910E0170910F0180915F
S11302001001909111010E94AE016B017C0164B553
S113021075B580E090E00E944F02A70196010E940C
S1130220DD020E9420027BBD6ABDFF91EF91BF9168
S1130230AF919F918F917F916F915F914F913F917A
S11302402F91FF90EF90DF90CF900F900FBE0F9003
S11302501F9018951F920F920FB60F9211242F938F
S11302603F934F935F936F937F938F939F93AF933A
S1130270BF93EF93FF930E946A0060E074E182E50C
S11302800E94C700FF91EF91BF91AF919F918F9111
S11302907F916F915F914F913F912F910F900FBE7E
S11302A00F901F90189581B3806281BB8EB58061D9
S11302B08EBD8EB588608EBD8FB582608FBD8FB5C3
S11302C08E7F8FBD8FB580688FBD8FB58F7B8FBDBF
S11302D089B7806889BF089580E091E090933D01DB
S11302E080933C0184B78F7784BF8FE190E00E94B4
S11302F0B6000E94C0000E9453010E94570081E092
S113030090E095BD84BD20E030E048EC52E460917B
S11303100E0170910F0180911001909111010E94C2
S1130320AE016B017C0164B575B580E090E00E947C
S11303304F02A70196010E94DD020E9420027BBDAC
S11303406ABD78948EB58B7F8EBD8EB58D7F8EBD44
S11303508EB581608EBD0E94C000FDCF0E94C20197
S11303600C94A3020E949C0258F00E94950240F053
S113037029F45F3F29F00C948C0251110C94D7029C
S11303800C9492020E94B40268F39923B1F35523AA
S113039091F3951B550BBB27AA2762177307840794
S11303A038F09F5F5F4F220F331F441FAA1FA9F32A
S11303B035D00E2E3AF0E0E832D091505040E69518
S11303C0001CCAF72BD0FE2F29D0660F771F881F79
S11303D0BB1F261737074807AB07B0E809F0BB0B6C
S11303E0802DBF01FF2793585F4F3AF09E3F510580
S11303F078F00C948C020C94D7025F3FE4F3983E9F
S1130400D4F3869577956795B795F7959F5FC9F768
S1130410880F911D9695879597F90895E1E0660FE9
S1130420771F881FBB1F621773078407BA0720F062
S1130430621B730B840BBA0BEE1F88F7E0950895CB
S11304400E94BC0288F09F5798F0B92F9927B751A2
S1130450B0F0E1F0660F771F881F991F1AF0BA9564
S1130460C9F714C0B13091F00E94D602B1E00895EA
S11304700C94D602672F782F8827B85F39F0B93FDC
S1130480CCF3869577956795B395D9F73EF4909517
S11304908095709561957F4F8F4F9F4F0895E89495
S11304A009C097FB3EF490958095709561957F4FB8
S11304B08F4F9F4F9923A9F0F92F96E9BB27939566
S11304C0F695879577956795B795F111F8CFFAF476
S11304D0BB0F11F460FF1BC06F5F7F4F8F4F9F4FA7
S11304E016C0882311F096E911C0772321F09EE805
S11304F0872F762F05C0662371F096E8862F70E06B
S113050060E02AF09A95660F771F881FDAF7880F44
S11305109695879597F9089597F99F6780E870E015
S113052060E008959FEF80EC089500240A94161665
S1130530170618060906089500240A9412161306CD
S1130540140605060895092E0394000C11F488235B
S113055052F0BB0F40F4BF2B11F460FF04C06F5F77
S11305607F4F8F4F9F4F089557FD9058440F551F4D
S113057059F05F3F71F04795880F97FB991F61F021
S11305809F3F79F087950895121613061406551F98
S1130590F2CF4695F1DF08C0161617061806991F04
S11305A0F1CF86957105610508940895E894BB27F9
S11305B066277727CB0197F908950E94F0020C94DF
S11305C0A3020E94950238F00E949C0220F0952319
S11305D011F00C948C020C94920211240C94D70206
S11305E00E94B40270F3959FC1F3950F50E0551F1C
S11305F0629FF001729FBB27F00DB11D639FAA2774
S1130600F00DB11DAA1F649F6627B00DA11D661FC2
S1130610829F2227B00DA11D621F739FB00DA11DE3
S1130620621F839FA00D611D221F749F3327A00D9D
S1130630611D231F849F600D211D822F762F6A2F39
S113064011249F5750409AF0F1F088234AF0EE0F9E
S1130650FF1FBB1F661F771F881F91505040A9F7CB
S11306609E3F510580F00C948C020C94D7025F3F9E
S1130670E4F3983ED4F3869577956795B795F79507
S1130680E7959F5FC1F7FE2B880F911D969587957F
S113069097F90895A0E0B0E0E0E5F3E00C940106DA
S11306A0AE014B5F5F4FFA0161917191AF0180918F
S11306B03C0190913D010E946003E2E00C941D0610
S11306C0ABE0B0E0E6E6F3E00C94F1056C017B01ED
S11306D08A01FC0117821682838181FFCCC1CE017D
S11306E001963C01F6019381F70193FD859193FFF7
S11306F081917F01882309F4BAC1853239F493FDCD
S1130700859193FF81917F01853229F4B60190E0B0
S11307100E945705E7CF912C212C312CFFE1F315D2
S1130720D8F08B3279F038F4803279F08332A1F446
S1130730232D20611DC08D3261F0803369F4232D97
S1130740216016C0832D8260382EE32DE4603E2E96
S11307502AC0F32DF8601DC037FC2DC020ED280FF2
S11307602A3040F08E32B9F436FC81C1232D206446
S1130770322E19C036FE06C08AE0989E200D112440
S1130780922E11C0EAE02E9E200D1124222EF32D6C
S1130790F0623F2E08C08C3621F4832D8068382EF9
S11307A002C0883641F4F70193FD859193FF81914E
S11307B07F018111B3CF982F9F7D9554933028F4F6
S11307C00C5F1F4F9FE399830DC0833631F083374D
S11307D071F0833509F059C021C0F8018081898303
S11307E00E5F1F4F88248394912C530113C028015A
S11307F0F2E04F0E511CF801A080B18036FE03C018
S1130800692D70E002C06FEF7FEFC5010E944C05B7
S11308104C018201F32DFF773F2E16C0280122E000
S1130820420E511CF801A080B18036FE03C0692D30
S113083070E002C06FEF7FEFC5010E9441054C01DB
S1130840F32DF0683F2E820133FC1BC0822D90E013
S113085088169906B0F4B60180E290E00E9457052C
S11308602A94F4CFF50137FC859137FE81915F011D
S1130870B60190E00E94570521102A9421E0821AC3
S113088091088114910471F7E8C0843611F0893617
S113089041F5F80137FE07C060817181828193813F
S11308A00C5F1F4F08C060817181072E000C880BFC
S11308B0990B0E5F1F4FF32DFF763F2E97FF09C054
S11308C090958095709561957F4F8F4F9F4FF068FD
S11308D03F2E2AE030E0A3010E949305882E86185B
S11308E045C0853731F4232D2F7EB22E2AE030E027
S11308F025C0932D997FB92E8F36C1F018F4883511
S113090079F0B5C0803719F0883721F0B0C0E92FED
S1130910E061BE2EB4FE0DC0FB2DF460BF2E09C0F5
S113092034FE0AC0292F2660B22E06C028E030E02B
S113093005C020E130E002C020E132E0F801B7FE5A
S113094007C060817181828193810C5F1F4F06C053
S11309506081718180E090E00E5F1F4FA3010E94CF
S11309609305882E8618FB2DFF773F2E36FE0DC08B
S1130970232D2E7FA22E891458F434FE0BC032FC92
S113098009C0832D8E7EA82E05C0B82CA32C03C0CD
S1130990B82C01C0B92CA4FE0FC0FE01E80DF11D56
S11309A08081803321F49A2D997EA92E09C0A2FE5C
S11309B006C0B394B39404C08A2D867809F0B39426
S11309C0A3FC11C0A0FE06C0B21488F4280C922C1B
S11309D09B180EC0B21460F4B60180E290E00E944D
S11309E05705B394F7CFB21418F42B1802C0982CFF
S11309F0212CA4FE10C0B60180E390E00E945705AC
S1130A00A2FE17C0A1FC03C088E790E002C088E5FD
S1130A1090E0B6010CC08A2D867859F0A1FE02C080
S1130A208BE201C080E2A7FC8DE2B60190E00E9457
S1130A305705891438F4B60180E390E00E94570505
S1130A409A94F7CF8A94F301E80DF11D8081B601E1
S1130A5090E00E9457058110F5CF222009F442CE80
S1130A60B60180E290E00E9457052A94F6CFF60181
S1130A708681978102C08FEF9FEF2B96E2E10C9461
S1130A800D06FC010590615070400110D8F7809567
S1130A9090958E0F9F1F0895FC0161507040019046
S1130AA00110D8F7809590958E0F9F1F08950F938E
S1130AB01F93CF93DF93FB01238121FD03C08FEFAD
S1130AC09FEF2CC022FF16C04681578124813581B7
S1130AD04217530744F4A081B1819D012F5F3F4F1A
S1130AE0318320838C93268137812F5F3F4F378357
S1130AF0268314C08B01EC01FB010084F185E02DF9
S1130B000995892BE1F6D80116968D919C9117973A
S1130B10019617969C938E931697CE01DF91CF91F1
S1130B201F910F910895FA01AA27283051F120311D
S1130B3081F1E8946F936E7F6E5F7F4F8F4F9F4F6D
S1130B40AF4FB1E03ED0B4E03CD0670F781F891FAF
S1130B509A1FA11D680F791F8A1F911DA11D6A0F7D
S1130B60711D811D911DA11D20D009F468943F9130
S1130B702AE0269F11243019305D3193DEF6CF012F
S1130B800895462F4770405D4193B3E00FD0C9F7F5
S1130B90F6CF462F4F70405D4A3318F0495D31FD62
S1130BA04052419302D0A9F7EACFB4E0A6959795B5
S1130BB0879577956795BA95C9F70097610571058B
S1130BC008959B01AC010A2E0694579547953795D5
S1130BD02795BA95C9F7620F731F841F951FA01D2F
S1130BE008952F923F924F925F926F927F928F92CD
S1130BF09F92AF92BF92CF92DF92EF92FF920F93A8
S1130C001F93CF93DF93CDB7DEB7CA1BDB0B0FB6B1
S1130C10F894DEBF0FBECDBF09942A88398848886E
S1130C205F846E847D848C849B84AA84B984C88404
S1130C30DF80EE80FD800C811B81AA81B981CE0FFB
S1130C40D11D0FB6F894DEBF0FBECDBFED010895E0
S1070C50F894FFCF42
S1130C540000000200000000A800000000000000E2
S1130C64484276616C75652073746F7265642061A3
S1130C7474204144435F646174615B25645D20694D
S10D0C8473203078253038780A0018
S9030000FC
