S0100000506F6E6747616D652E7372656306
S11300000C9438000C9455000C9455000C94550035
S11300100C9455000C9455000C9455000C94550008
S11300200C9455000C9455000C9455000C945500F8
S11300300C9455000C9455000C9455000C945500E8
S11300400C9455000C9455000C9455000C945500D8
S11300500C9455000C9455000C9455000C945500C8
S11300600C9455000C9455000C9455000C945500B8
S113007011241FBECFEFD4E0DEBFCDBF11E0A0E05E
S1130080B1E0E6EAF1E002C005900D92AE30B107AE
S1130090D9F721E0AEE0B1E001C01D92A431B2076E
S11300A0E1F70E9470000C94D1000C940000CF93EF
S11300B0C82F8A3019F48DE00E9457005D9BFECF53
S11300C0CCB980E090E0CF91089590BD89B988E1E2
S11300D08AB98EE880BD08955F9BFECF8CB10895E8
S11300E00E94750080E090E008958FE190E00E9406
S11300F0650080E091E090931101809310010E94CB
S11301006C0090E00E948E002FEF8FE797E0215063
S113011080409040E1F700C00000F1CF60911001F1
S1130120709111010E94950008950F931F93CF932E
S1130130DF93FB01238121FD03C08FEF9FEF2CC0D0
S113014022FF16C046815781248135814217530707
S113015044F4A081B1819D012F5F3F4F31832083FF
S11301608C93268137812F5F3F4F3783268314C0BA
S11301708B01EC01FB010084F185E02D0995892BAD
S1130180E1F6D80116968D919C91179701961796D2
S11301909C938E931697CE01DF91CF911F910F916F
S10901A00895F894FFCF5E
S11101A60000000200000000570000000000EE
S9030000FC
