S0100000506F6E6747616D652E7372656306
S11300000C9438000C9455000C9455000C945A012F
S11300100C9455000C9455000C9455000C94550008
S11300200C9455000C9455000C9455000C945500F8
S11300300C9455000C9455000C9455000C9412012A
S11300400C9455000C9455000C9455000C94040128
S11300500C9455000C9455000C9455000C945500C8
S11300600C9455000C9455000C9455000C945500B8
S113007011241FBECFEFD4E0DEBFCDBF11E0A0E05E
S1130080B1E0E6EAF8E002C005900D92AE30B107A7
S1130090D9F721E0AEE0B1E001C01D92AC31B20766
S11300A0E1F70E9480010C9451040C940000CF925B
S11300B0DF92EF92FF9281B3806281BB8EB5806143
S11300C08EBD8EB588608EBD8FB582608FBD8FB5B5
S11300D08E7F8FBD8FB580688FBD8FB58F7B8FBDB1
S11300E089B7806889BF81E090E095BD84BD20E038
S11300F030E048EC52E460910E0170910F01809160
S11301001001909111010E94B5026B017C0164B54C
S113011075B580E090E00E945603A70196010E9405
S1130120E4030E9427037BBD6ABD8EB58B7F8EBD21
S11301308EB58D7F8EBD8EB581608EBDFF90EF90A4
S1130140DF90CF90089581B3806281BB81B38064D6
S113015081BB81B3806881BB86B18E7F86B986B747
S1130160816086BF8BB780628BBF0895EF92FF9248
S11301700F931F93CF93DF937C010000C0E0D0E086
S11301800DC087010C0F1D1F80E097E10E94010143
S1130190F8018083F2E0FA95F1F72196C430D10595
S11301A084F3DF91CF911F910F91FF90EF90089509
S11301B0CF93C82F8A3019F48DE00E94D8005D9B3C
S11301C0FECFCCB980E090E0CF91089590BD89B97D
S11301D088E18AB98AB180688AB98EE880BD0895B9
S11301E085B7806885BF80B7806280BF089520E0AE
S11301F031E03093190120931801FB018083808141
S11302000895FC01808108951F920F920FB60F92FA
S113021011248F938CB18CB98F910F900FBE0F90D6
S11302201F9018951F920F920FB60F921124CF9220
S1130230DF92EF92FF922F933F934F935F936F93CD
S11302407F938F939F93AF93BF93EF93FF9320E09C
S113025030E048EC52E460910E0170910F018091FE
S11302601001909111010E94B5026B017C0164B5EB
S113027075B580E090E00E945603A70196010E94A4
S1130280E4030E9427037BBD6ABDFF91EF91BF91F8
S1130290AF919F918F917F916F915F914F913F911A
S11302A02F91FF90EF90DF90CF900F900FBE0F90A3
S11302B01F9018951F920F920FB60F9211242F932F
S11302C03F934F935F936F937F938F939F93AF93DA
S11302D0BF93EF93FF9382E191E00E94B600FF91F8
S11302E0EF91BF91AF919F918F917F916F915F91AA
S11302F04F913F912F910F900FBE0F901F90189523
S113030080E090E0A8E4B2E480930E0190930F01A2
S1130310A0931001B093110180E091E09093190132
S1130320809318018FE190E00E94E6000E94F000A3
S11303300E9457000E94A30078940E94AD010E947D
S11303404A020E941C0240E060E070E080E090E01D
S11303500E94710280E090E0089560E070E18EEA0E
S11303600E94F70060E070E181EA0E94F70060E01B
S113037070E18AED0E94F70060E070E182E10E9482
S1130380F70060E070E188EC0E94F70060E070E143
S113039088EA0E94F70060E070E18FE30E94F700B2
S11303A060E070E185ED0E94F70060E070E180E8B4
S11303B00E94F70060E070E181E80E94F70060E0CD
S11303C070E180E50E94F70060E070E189ED0E9431
S11303D0F70060E070E181E20E94F70060E070E104
S11303E080E20E94F70060E070E182E00E94F70082
S11303F060E070E18BED0E94F70060E070E180E363
S11304000E94F70060E070E18DEA0E94F70060E06E
S113041070E180E00E94F70060E070E184EA0E94ED
S1130420F70060E070E186EA0E94F70060E070E1A6
S11304308FEA0E94F7000895FF920F931F93CF93C2
S1130440DF9360E070E180EB0E94F70000E010E0D1
S11304500F2EF0EBFF2EF02D14C060E072E180E06F
S11304600E94F700219602C0C0E0D0E0C038D10558
S1130470A4F3F39460E070E18F2D0E94F7000F5F06
S11304801F4F0830110584F3DF91CF911F910F9115
S1130490FF90089560E070E180EB0E94F70060E057
S11304A070E180E00E94F70060E070E180E10E946A
S11304B0F700089560E070E180550E94F700089508
S11304C0CF93C82F60E070E18F700E94F7008C2FEB
S11304D082958F7060E070E1805F0E94F700CF9199
S11304E008950F931F93CF938C01862FC42F0E94DE
S11304F06002C8010E945A02C1111AC060E072E190
S113050088E10E94F70060E072E188E10E94F70050
S113051060E072E18EE70E94F70060E072E18CE334
S11305200E94F70060E072E188E10E94F70019C0C0
S113053060E072E180E00E94F70060E072E180E038
S11305400E94F70060E072E180E00E94F70060E042
S113055072E180E00E94F70060E072E180E00E94B6
S1130560F700CF911F910F9108950E94C9020C9436
S1130570AA030E94A30358F00E949C0340F029F4AC
S11305805F3F29F00C94930351110C94DE030C94F7
S113059099030E94BB0368F39923B1F3552391F3A4
S11305A0951B550BBB27AA2762177307840738F0DE
S11305B09F5F5F4F220F331F441FAA1FA9F335D03B
S11305C00E2E3AF0E0E832D091505040E695001CEF
S11305D0CAF72BD0FE2F29D0660F771F881FBB1FA9
S11305E0261737074807AB07B0E809F0BB0B802D87
S11305F0BF01FF2793585F4F3AF09E3F510578F0B3
S11306000C9493030C94DE035F3FE4F3983ED4F31D
S1130610869577956795B795F7959F5FC9F7880F86
S1130620911D9695879597F90895E1E0660F771FD8
S1130630881FBB1F621773078407BA0720F0621B69
S1130640730B840BBA0BEE1F88F7E09508950E9494
S1130650C30388F09F5798F0B92F9927B751B0F08A
S1130660E1F0660F771F881F991F1AF0BA95C9F732
S113067014C0B13091F00E94DD03B1E008950C94F0
S1130680DD03672F782F8827B85F39F0B93FCCF3A3
S1130690869577956795B395D9F73EF490958095AF
S11306A0709561957F4F8F4F9F4F0895E89409C0CF
S11306B097FB3EF490958095709561957F4F8F4F91
S11306C09F4F9923A9F0F92F96E9BB279395F695A7
S11306D0879577956795B795F111F8CFFAF4BB0F25
S11306E011F460FF1BC06F5F7F4F8F4F9F4F16C089
S11306F0882311F096E911C0772321F09EE8872F13
S1130700762F05C0662371F096E8862F70E060E0CE
S11307102AF09A95660F771F881FDAF7880F969547
S1130720879597F9089597F99F6780E870E060E0EE
S113073008959FEF80EC089500240A941616170676
S113074018060906089500240A94121613061406BE
S113075005060895092E0394000C11F4882352F021
S1130760BB0F40F4BF2B11F460FF04C06F5F7F4FD9
S11307708F4F9F4F089557FD9058440F551F59F0C0
S11307805F3F71F04795880F97FB991F61F09F3F7A
S113079079F087950895121613061406551FF2CFA3
S11307A04695F1DF08C0161617061806991FF1CFF3
S11307B086957105610508940895E894BB2766271A
S11307C07727CB0197F908950E94F7030C94AA03A5
S11307D00E949C0338F00E94A30320F0952311F09B
S11307E00C9493030C94990311240C94DE030E943B
S11307F0BB0370F3959FC1F3950F50E0551F629FA3
S1130800F001729FBB27F00DB11D639FAA27F00D65
S1130810B11DAA1F649F6627B00DA11D661F829F8C
S11308202227B00DA11D621F739FB00DA11D621F71
S1130830839FA00D611D221F749F3327A00D611D8E
S1130840231F849F600D211D822F762F6A2F112470
S11308509F5750409AF0F1F088234AF0EE0FFF1FA3
S1130860BB1F661F771F881F91505040A9F79E3FFA
S1130870510580F00C9493030C94DE035F3FE4F382
S1130880983ED4F3869577956795B795F795E79550
S11308909F5FC1F7FE2B880F911D9695879597F959
S10908A00895F894FFCF57
S11108A60000000200000000D8000000000066
S9030000FC
