:100000000C94B4010C942F030C94D1010C941B0399
:100010000C94D1010C94D1010C94D1010C94D10118
:100020000C94D1010C94D1010C94D1010C94D10108
:100030000C94D1010C94D1010C94D1010C94D302F5
:100040000C94D1010C94D1010C94D1010C94C502F3
:100050000C94D1010C94D1010C94D1010C94D101D8
:100060000C94D1010C94D1010C94D1010C94D101C8
:10007000000000000000000000065F5F06000000B6
:100080000007070007070000147F7F147F7F14001C
:10009000242E6B6B3A120000466630180C66620024
:1000A000307A4F5D377A48000407030000000000F3
:1000B000001C3E63410000000041633E1C00000044
:1000C000082A3E1C1C3E2A0808083E3E080800007C
:1000D00000A0E06000000000080808080808000010
:1000E00000006060000000006030180C0603010092
:1000F0003E7F594D7F3E000042427F7F40400000DE
:10010000627359496F660000226349497F360000D7
:10011000181C16137F7F1000276745457D390000A6
:100120003C7E4B4979300000036371190F070000D2
:10013000367F49497F360000064F49693F1E00005F
:1001400000006C6C0000000000A0EC6C00000000DF
:10015000081C366341000000141414141414000029
:10016000004163361C080000020351590F060000CD
:100170003E7F415D5D1F1E007C7E13137E7C000070
:10018000417F7F49497F36001C3E63414163220025
:10019000417F7F41637F1C00417F7F495D41630058
:1001A000417F7F491D0103001C3E63415173720072
:1001B0007F7F08087F7F000000417F7F41000000B3
:1001C000307040417F3F0100417F7F081C77630012
:1001D000417F7F41406070007F7F060C067F7F007B
:1001E0007F7F060C187F7F001C3E6341633E1C002E
:1001F000417F7F49090F06001E3F21717F5E00008D
:10020000417F7F19396F460026674D597B320000C8
:1002100003417F7F410300007F7F40407F7F0000DC
:100220001F3F60603F1F00007F7F3018307F7F00DE
:1002300063771C081C776300074F78784F0700002E
:100240006773594D47637100007F7F414100000093
:100250000103060C183060000041417F7F00000060
:10026000080C0603060C0800808080808080808057
:100270000000030704000000207454543C78400040
:10028000413F7F44447C3800387C44446C28000063
:10029000307848493F7F4000387C54545C18000057
:1002A000487E7F490302000098BCA4A4F87C0400A7
:1002B000417F7F08047C780000447D7D4000000081
:1002C00040C484FD7D000000417F7F10386C4400F5
:1002D00000417F7F400000007C7C0C180C7C780083
:1002E0007C7C04047C780000387C44447C3800002A
:1002F00084FCF8A4243C1800183C24A4F8FC8400D6
:10030000447C78441C180000485C54547424000059
:1003100000043E7F442400003C7C40403C7C400084
:100320001C3C60603C1C00003C7C6030607C3C00FD
:10033000446C3810386C44009CBCA0A0FC7C0000CD
:100340004C64745C4C64000008083E774141000036
:1003500000000077770000004141773E0808000068
:10036000020301030203010011241FBECFEFD4E0FA
:10037000DEBFCDBF11E0A0E0B1E0EAEFF2E102C0E4
:1003800005900D92A438B107D9F721E0A4E8B1E0B7
:1003900001C01D92AA39B207E1F70E9443030C94F1
:1003A0007B090C940000CF92DF92EF92FF9281B311
:1003B000806281BB8EB580618EBD8EB588608EBD3A
:1003C0008FB582608FBD8FB58E7F8FBD8FB58068F2
:1003D0008FBD8FB58F7B8FBD89B7806889BF81E066
:1003E00090E095BD84BD20E030E048EC52E460919F
:1003F00088017091890180918A0190918B010E94FE
:1004000086076B017C0164B575B580E090E00E94C1
:100410002708A70196010E94DE080E94F8077BBD0D
:100420006ABD8EB58B7F8EBD8EB58D7F8EBD8EB530
:1004300081608EBDFF90EF90DF90CF90089581B3E3
:10044000806281BB81B3806481BB81B3806881BBE2
:1004500086B18E7F86B986B7816086BF8BB7806292
:100460008BBF0895EF92FF920F931F93CF93DF936B
:100470007C010000C0E0D0E00DC087010C0F1D1F03
:1004800080E097E10E947D02F8018083F2E0FA9516
:10049000F1F72196C430D10584F3DF91CF911F91FC
:1004A0000F91FF90EF900895CF93C82F8A3019F4E1
:1004B0008DE00E9454025D9BFECFCCB980E090E0BD
:1004C000CF91089590BD89B988E18AB98AB18068D1
:1004D0008AB98EE880BD089585B7806885BF80B7EA
:1004E000806280BF089520E031E03093970120932F
:1004F0009601FB01808380810895FC01808108952D
:1005000081B38B7F81BB82B3846082BB85B78E7FD2
:1005100085BF85B78D7F85BF8BB780648BBF0895FE
:100520000F931F93CF938C01FC01628185E30E949E
:10053000A204F80140814295440F407E60EE82E3C0
:100540000E94C104F8014081518156954795569506
:100550004795569547956FEF81E30E94C104C0E02F
:1005600009C0F801EC0FF11D638186E38C0F0E9436
:10057000A204CF5FF8018281C81798F381E80E9436
:10058000B804CF911F910F9108951F920F920FB64B
:100590000F9211248F938CB18CB98F910F900FBE55
:1005A0000F901F9018951F920F920FB60F92112463
:1005B000CF92DF92EF92FF922F933F934F935F93EF
:1005C0006F937F938F939F93AF93BF93EF93FF931B
:1005D00020E030E048EC52E460918801709189019C
:1005E00080918A0190918B010E9486076B017C01AA
:1005F00064B575B580E090E00E942708A7019601D8
:100600000E94DE080E94F8077BBD6ABDFF91EF9152
:10061000BF91AF919F918F917F916F915F914F911A
:100620003F912F91FF90EF90DF90CF900F900FBEF2
:100630000F901F9018951F920F920FB60F921124D2
:100640008F939F9381E090E0909387018093860140
:100650009F918F910F900FBE0F901F9018951F9232
:100660000F920FB60F9211248F939F9381E090E029
:1006700090938501809384019F918F910F900FBE7D
:100680000F901F901895CF93DF93CDB7DEB7699782
:100690000FB6F894DEBF0FBECDBF80E091E090931F
:1006A0009701809396018FE190E00E9462020E9480
:1006B0006C020E94D3010E941F020E94E7040E9464
:1006C0008002789419821A821B821C821D821E82EB
:1006D0001F8218861A8619861F8A1E8A198E188EFE
:1006E0000E940D050E9481050E94D5050E9481058A
:1006F00082E090E00E94E5058EE10E94EB058EE02D
:1007000091E00E94FC0583E090E00E94E5058EE107
:100710000E94EB0584E191E00E94FC0584E090E0FA
:100720000E94E5058EE10E94EB058DE191E00E94BB
:10073000FC0560918C0170918D0140E080918E01EB
:1007400090918F010E9412069E01275F3F4F40E962
:1007500051E0BE016B5F7F4FCE0101960E945606AD
:10076000BE016B5F7F4FCE0101960E94BE06182F1F
:1007700040E951E0BE01685E7F4FCE0146960E947F
:100780009C0681E090E09C878B8784E08D871E87A4
:100790008E898F87888D888B80918401898B1092B8
:1007A000850110928401CE010B960E9490028091E7
:1007B000860190918701892B41F080E991E00E94A8
:1007C00032021092870110928601123071F038F4D3
:1007D000112309F477C0113009F453C099C01330C4
:1007E00059F1143009F48FC093C086E291E00E9461
:1007F0004B0960918C0170918D0141E080918E01D7
:1008000090918F010E94120680918E0190918F012C
:10081000992334F487E090E090938F0180938E01C8
:1008200060918C0170918D0140E080918E019091DA
:100830008F010E94120688CF89E291E00E944B0945
:1008400060918C0170918D0141E080918E019091B9
:100850008F010E94120680918E0190918F0108975E
:1008600024F010928F0110928E0160918C01709192
:100870008D0140E080918E0190918F010E941206BF
:1008800063CF8EE291E00E944B0960918C017091E0
:100890008D0141E080918E0190918F010E9412069E
:1008A00060918C0170918D016B5F7F4F70938D0112
:1008B00060938C0140E080918E0190918F010E94A5
:1008C000120642CF84E391E00E944B0960918C01B3
:1008D00070918D0141E080918E0190918F010E9475
:1008E000120660918C0170918D01655071097093B1
:1008F0008D0160938C0140E080918E0190918F0179
:100900000E94120621CF89E391E00E944B091CCF7F
:1009100081E491E00E944B0917CFCF93C82F88B391
:100920008F7E88BB83E00E940C078C2F0E940C07EF
:1009300080E00E940C070E94100798B3906198BB5A
:10094000CF910895CF93DF93D82FC62F88B38F7E92
:1009500088BB82E00E940C078D2F0E940C078C2F11
:100960000E940C0788B3806188BBDF91CF91089506
:1009700098B39F7E98BB0E940C0788B3806188BBA8
:1009800008951F93CF93DF93182FD62FC42F88B3CA
:100990008F7E88BB85E00E940C07812F0E940C0788
:1009A0008D2F0E940C078C2F0E940C0788B380614A
:1009B00088BBDF91CF911F91089588B38F7E88BB4C
:1009C00080EC0E940C0788B3806188BB08950E9468
:1009D00006070E94DD048EE00E948D04807E803830
:1009E00031F08FE491E00E944B0981E0089543E0EB
:1009F0006FEF8AE20E94C10441EB6FEF89E20E942F
:100A0000C10445E067EC88E20E94C10440E060EE6A
:100A10008FE00E94C10480E0089560E070E18EEAFA
:100A20000E94730260E070E181EA0E94730260E05C
:100A300070E18AED0E94730260E070E182E10E9441
:100A4000730260E070E188EC0E94730260E070E184
:100A500088EA0E94730260E070E18FE30E947302F3
:100A600060E070E185ED0E94730260E070E180E873
:100A70000E94730260E070E181E80E94730260E00E
:100A800070E180E50E94730260E070E189ED0E94F0
:100A9000730260E070E181E20E94730260E070E145
:100AA00080E20E94730260E070E182E00E947302C3
:100AB00060E070E18BED0E94730260E070E180E322
:100AC0000E94730260E070E18DEA0E94730260E0B0
:100AD00070E180E00E94730260E070E184EA0E94AD
:100AE000730260E070E186EA0E94730260E070E1E8
:100AF00080E00E94730260E070E18FEA0E9473025E
:100B00000895FF920F931F93CF93DF9360E070E1FE
:100B100080E40E94730260E070E180EB0E94730247
:100B200000E010E00F2EF0EBFF2EF02D14C060E07F
:100B300072E180E00E947302219602C0C0E0D0E022
:100B4000C038D105A4F3F39460E070E18F2D0E94CA
:100B500073020F5F1F4F0830110584F3DF91CF91AF
:100B60001F910F91FF9008951F93CF93DF93182F3C
:100B7000C0E0D0E013C0E12FF0E0B097EE0FFF1F10
:100B8000EE0FFF1FEE0FFF1FEC0FFD1FE059FF4F91
:100B9000849160E072E10E9473022196C830D10511
:100BA00054F3DF91CF911F91089560E070E180EBE5
:100BB0000E94730260E070E180E00E94730260E0D6
:100BC00070E180E10E947302089560E070E1805559
:100BD0000E9473020895CF93C82F60E070E18F7078
:100BE0000E9473028C2F82958F7060E070E1805FAD
:100BF0000E947302CF9108950F931F93CF93DF93B9
:100C00008C01C0E0D0E003C00E94B4052196F80139
:100C1000EC0FFD1F80818111F7CFDF91CF911F91E4
:100C20000F9108950F931F93CF938C01862FC42F9C
:100C30000E94EB05C8010E94E505C1111AC060E0E1
:100C400072E188E10E94730260E072E188E10E9433
:100C5000730260E072E18EE70E94730260E072E16D
:100C60008CE30E94730260E072E188E10E947302EB
:100C700019C060E072E180E00E94730260E072E1FE
:100C800080E00E94730260E072E180E00E947302E3
:100C900060E072E180E00E94730260E072E180E057
:100CA0000E947302CF911F910F910895EF92FF92CE
:100CB0000F931F93CF93DF937C018B01EA01CA014D
:100CC0000E94320260E074E180E00E9473026B8156
:100CD00070E080E090E00E94270829EC38EC48E4BE
:100CE0005FE30E94DE0820E030E048EC52E40E941E
:100CF0001407F7016083718382839383688170E0B6
:100D000080E090E00E94270829EC38EC48E45FE39B
:100D10000E94DE0820E030E048EC52E40E94140714
:100D2000F8016083718382839383DF91CF911F9158
:100D30000F91FF90EF900895EF92FF920F931F9302
:100D4000CF93DF937C018B01EA01CA010E9432023A
:100D500060E074E180E00E947302898190E0F70115
:100D6000918380838A8190E0F80191838083DF9171
:100D7000CF911F910F91FF90EF900895CF92DF9246
:100D8000EF92FF92CF93DF93EB01FC01C080D18003
:100D9000E280F38020E030E04CE852E4C701B60185
:100DA0000E94D908882324F520E030E04CE852EC7A
:100DB000C701B6010E9481071816E4F4C880D980E3
:100DC000EA80FB8020E030E04CE852E4C701B60145
:100DD0000E94D908882384F420E030E04CE852ECEB
:100DE000C701B6010E948107181644F083E007C0CE
:100DF00081E005C080E003C082E001C084E0DF91B3
:100E0000CF91FF90EF90DF90CF90089587B3806BE4
:100E100087BB81E58DB908958FB9779BFECF089583
:100E2000779BFECF8FB108955058BB27AA270E9409
:100E30002C070C949F080E94910838F00E94980893
:100E400020F039F49F3F19F426F40C948E080EF428
:100E5000E095E7FB0C948808E92F0E94B00858F34E
:100E6000BA17620773078407950720F079F4A6F58F
:100E70000C94D2080EF4E0950B2EBA2FA02D0B0186
:100E8000B90190010C01CA01A0011124FF27591BCF
:100E900099F0593F50F4503E68F11A16F040A22FD5
:100EA000232F342F4427585FF3CF46953795279546
:100EB000A795F0405395C9F77EF41F16BA0B620B45
:100EC000730B840BBAF09150A1F0FF0FBB1F661F8C
:100ED000771F881FC2F70EC0BA0F621F731F841FCF
:100EE00048F4879577956795B795F7959E3F08F0F5
:100EF000B0CF9395880F08F09927EE0F97958795B7
:100F000008950E94640808F481E008950E949A07F9
:100F10000C949F080E94980858F00E94910840F095
:100F200029F45F3F29F00C94880851110C94D308E0
:100F30000C948E080E94B00868F39923B1F35523EE
:100F400091F3951B550BBB27AA27621773078407DC
:100F500038F09F5F5F4F220F331F441FAA1FA9F372
:100F600035D00E2E3AF0E0E832D091505040E69560
:100F7000001CCAF72BD0FE2F29D0660F771F881FC1
:100F8000BB1F261737074807AB07B0E809F0BB0BB4
:100F9000802DBF01FF2793585F4F3AF09E3F5105C8
:100FA00078F00C9488080C94D3085F3FE4F3983EE3
:100FB000D4F3869577956795B795F7959F5FC9F7B1
:100FC000880F911D9695879597F90895E1E0660F32
:100FD000771F881FBB1F621773078407BA0720F0AB
:100FE000621B730B840BBA0BEE1F88F7E095089514
:100FF0000E94B80888F09F5798F0B92F9927B751E9
:10100000B0F0E1F0660F771F881F991F1AF0BA95AC
:10101000C9F714C0B13091F00E94D208B1E0089530
:101020000C94D208672F782F8827B85F39F0B93F22
:10103000CCF3869577956795B395D9F73EF490955F
:101040008095709561957F4F8F4F9F4F0895E894DD
:1010500009C097FB3EF490958095709561957F4F00
:101060008F4F9F4F9923A9F0F92F96E9BB279395AE
:10107000F695879577956795B795F111F8CFFAF4BE
:10108000BB0F11F460FF1BC06F5F7F4F8F4F9F4FEF
:1010900016C0882311F096E911C0772321F09EE84D
:1010A000872F762F05C0662371F096E8862F70E0B3
:1010B00060E02AF09A95660F771F881FDAF7880F8D
:1010C0009695879597F90895990F0008550FAA0BE3
:1010D000E0E8FEEF16161706E807F907C0F012164B
:1010E0001306E407F50798F0621B730B840B950B4E
:1010F00039F40A2661F0232B242B252B21F40895A3
:101100000A2609F4A140A6958FEF811D811D08953F
:1011100097F99F6780E870E060E008959FEF80ECAA
:10112000089500240A94161617061806090608954D
:1011300000240A9412161306140605060895092EB3
:101140000394000C11F4882352F0BB0F40F4BF2B22
:1011500011F460FF04C06F5F7F4F8F4F9F4F089562
:1011600057FD9058440F551F59F05F3F71F0479558
:10117000880F97FB991F61F09F3F79F0879508953D
:10118000121613061406551FF2CF4695F1DF08C05C
:10119000161617061806991FF1CF86957105610579
:1011A00008940895E894BB2766277727CB0197F921
:1011B00008950E94640808F48FEF08950E94F108D2
:1011C0000C949F080E94910838F00E94980820F023
:1011D000952311F00C9488080C948E0811240C941B
:1011E000D3080E94B00870F3959FC1F3950F50E0AB
:1011F000551F629FF001729FBB27F00DB11D639FC9
:10120000AA27F00DB11DAA1F649F6627B00DA11D6E
:10121000661F829F2227B00DA11D621F739FB00D14
:10122000A11D621F839FA00D611D221F749F332784
:10123000A00D611D231F849F600D211D822F762F1D
:101240006A2F11249F5750409AF0F1F088234AF0FA
:10125000EE0FFF1FBB1F661F771F881F9150504066
:10126000A9F79E3F510580F00C9488080C94D30890
:101270005F3FE4F3983ED4F3869577956795B795ED
:10128000F795E7959F5FC1F7FE2B880F911D969507
:10129000879597F908950F931F93CF93DF93E0916C
:1012A0009601F0919701238121FF1BC08C01D0E0B2
:1012B000C0E0F80181918F016091960170919701D2
:1012C000DB011896ED91FC911997882331F009956F
:1012D000892B79F3DFEFCFEFECCF8AE00995892BEB
:1012E00019F08FEF9FEF02C08D2F9C2FDF91CF91D0
:0A12F0001F910F910895F894FFCFAD
:1012FA0000000002000000005402000000005374C5
:10130A006172740050696E67506F6E6700456E6453
:10131A002067616D6500555000444F574E00524991
:10132A00474854004C454654004E45555452414C8A
:10133A00004E6F7420776F726B696E67203F0020D2
:10134A004D435032353135206973204E4F54206950
:10135A006E20636F6E66696775726174696F6E205D
:10136A006D6F646520616674657220726573657459
:04137A00202100002E
:00000001FF
