:100000000C9438000C9442000C9442000C94420072
:100010000C9442000C9442000C9442000C94420058
:100020000C9442000C9442000C9442000C94420048
:100030000C9442000C9442000C9442000C94420038
:100040000C9442000C9442000C9442000C94420028
:100050000C9442000C9442000C9442000C94420018
:100060000C9442000C9442000C9442000C94420008
:1000700011241FBECFEFD4E0DEBFCDBF0E945300DE
:100080000C9460000C94000090BD89B988E18AB995
:100090008EE880BD08955D9BFECF8CB908955F9B6F
:1000A000FECF8CB108958FE190E00E94440080E083
:1000B00090EF0197F1F70E944F000E944B00F7CF9D
:0400C000F894FFCFE2
:00000001FF
