S013000041726475696E6F4E6F64652E73726563B9
S214080000B8080020A10308009D0308009D03080007
S2140800109D0308009D0308009D03080000000000DB
S2140800200000000000000000000000009D0308001B
S2140800309D030800000000009D0308009D030800BB
S2140800409D0308009D0308009D0308009D03080003
S2140800509D0308009D0308009D0308009D030800F3
S214080060D50908009D030800000000009D0308004D
S2140800709D0308009D0308009D030800000000007B
S214080080000000009D0308009D0308009D0308006B
S2140800909D0308009D0308009D0308009D030800B3
S2140800A09D030800000000009D0308009D0308004B
S2140800B09D0308009D0308009D0308009D03080093
S2140800C09D0308009D0308009D0308009D03080083
S2140800D09D0308009D0308009D0308009D03080073
S2140800E09D0308009D0308009D030800D902080028
S2140800F09D03080010B5054C237833B9044B13B19B
S2140801000448AFF300800123237010BD3404002098
S214080110000000003C0C08000C4B43B10C4810B51E
S2140801200C49AFF300800C48036823B910BD0A4891
S214080130036833B97047094B002BF7D0BDE8104069
S2140801401847064B002BF5D0184700BF00000000E4
S2140801503C0C0800380400203C0C08000000000096
S214080160F0B45718082FD4BF00230123082998BFD6
S214080170082A5CD80D46002B59D12E4A136823F05E
S2140801800103136013692C4B4FF440745C641C6FB6
S21408019024F003041C6703245C605C66A3F5006314
S2140801A0264CC3F80C41D3F8004144F40064C3F865
S2140801B000415061002419E01E4801F110035B015C
S2140801C0C2180026566000EB41124FF00056C2F8DF
S2140801D008624FF08076C650D2F81C3243F400030B
S2140801E0C2F81C3201238B401C430131B942E3DDBF
S2140801F000230DE00F4901EB43124FF00050C2F800
S214080200080203F1100252014FF040708850013383
S214080210AB42EFDB074B5C604FF40061084A516065
S2140802201A6842F001021A600020F0BC70470120EC
S214080230FBE700BF00400B40000E0E402B100010DE
S21408024000E100E008B502220121014B984708BDED
S214080250610108004B0103F1402303F53023D3F86E
S214080260103213F4000F33D070B44B0103F140235F
S21408027003F53023D3F81442D3F81822D3F80852DB
S214080280C5F38A450580D3F81052C5F30345857033
S214080290002303E0C618F270120A0133AB4205DAEF
S2140802A0032BF7DCC618F470240AF6E7094B01F1AD
S2140802B0100252014FF08070985003EB4111D1F8AC
S2140802C01C3243F40003C1F81C32002070BC70478F
S2140802D00120704700400B4010B584B0154B1C69D0
S2140802E014F0060F19D014F0020F08D114F0040FFA
S2140802F00AD0022101A8104B9847002309E00121E3
S21408030001A80D4B9847F8E70C480D4B9847F4E7BB
S21408031001339DF806209342FADB14F0010F02D051
S2140803200122044B9A604FF40062064BC3F88421FE
S21408033004B010BD00400B4055020800AC0B080086
S2140803408D08080000E100E00A4AD2F8003143F0C0
S2140803504003C2F80031084B1A6842F001021A60DE
S2140803605A6842F480325A601A6942F002021A61E8
S214080370704700BF00060E4000800C40064B1A6807
S21408038040F207610A431A601A690A431A611A6B2F
S2140803900A431A63704700BF00140E40FEE70000C9
S2140803A008B5114B114A9A4209D00F4B0F4A03E081
S2140803B011681960043304320D498B42F8D30D4B8B
S2140803C002E000221A6004330B4A9342F9D30B4B1F
S2140803D023F0604323F07F03094A9360094B98474C
S2140803E0094B9847FEE700BF000000203C0C0800B9
S2140803F03404002034040020B8040020000008005C
S21408040000ED00E03D0A0800690508004FF4806327
S214080410204A136002F5007213601F4B1B6A13F024
S214080420807F07D11D4A1C4B1A621B4B9B6E13F02C
S214080430010FFAD01A4A184B1A62174B9B6E13F420
S214080440803FFAD0144A136B23F0030343F00103EA
S2140804501363114B9B6E13F0080FFAD0114A0E4B1C
S2140804609A620D4B9B6E13F0020FFAD011220A4BBC
S2140804701A63094B9B6E13F0080FFAD01222064B2C
S2140804801A63054B9B6E13F0080FFAD0064A074B03
S2140804901A607047000A0E4000060E40090837002A
S2140804A009083701013F0D2000BD010500000020A6
S2140804B0064A536843F480235360A2F52062D2F8B4
S2140804C0003143F02003C2F80031704700100E4098
S2140804D00F4B1A6842F001021A60D3F8E42062F063
S2140804E00102C3F8E4201A6942F400621A615A68E5
S2140804F042F010025A605A6842F080025A605A6AFD
S21408050042F400625A621A6C42F080721A647047AB
S21408051000000C40044B1B6AC3F30B03C72B01DD1A
S214080520012070470020704700000C4038B505468B
S2140805300C46094B9847236803442360074A9342AE
S21408054000DD00B138BD2968013129600448054B33
S214080550984700232360F5E71505080040420F007A
S214080560D80B08008D08080000B583B0154B1A682C
S21408057042F4C0121A601A6942F4C0121A61124B89
S2140805809847124B98471248124B98474FF4004228
S214080590114B5A60114B9847114B9847114B984787
S2140805A0114B9847114B9847114B984700230193D6
S2140805B00093694601A80F4B984740F6FF720E4B0A
S2140805C01A62F6E7000E0E400D04080049090800F6
S2140805D06501290045020800501A0E40B1080800B7
S2140805E0DD080800B1040800D10408004903080023
S2140805F07D0308002D05080000800C4008B5C8B229
S214080600014B984708BD00BFB10908002DE9F04125
S21408061007460E46151E02DD0A46002104E04FF086
S21408062020080EE00131013210780028FAD1A942DC
S21408063001DA6D1A00E0002513F0020F06D14FF01C
S214080640200813F001040AD0002410E04FF0300808
S214080650F7E7414638460D4B98470134013D002DD3
S214080660F7DC04E03846094B984701340136317800
S2140806700029F7D105E041463846044B984701342F
S214080680013D002DF7DC2046BDE8F081FD05080099
S214080690F0B585B007460C9851B11E460C4613B106
S2140806A00A2A12D0002604AD002305F8013D18E0FA
S2140806B030238DF8043000238DF805300B9B0A9AFA
S2140806C001A938461B4CA04729E0002901DB002673
S2140806D0E9E74C420126E6E7303305F8013DB4FB6E
S2140806E0F2F44CB1B4FBF2F302FB1343092BF3DD2F
S2140806F0A0F13A010B44EFE756B10A9B1BB10B9BDE
S21408070013F0020F0DD12D2305F8013C013D0026FC
S2140807100B9B0A9A29463846064CA047304405B033
S214080720F0BD2D213846044B98470A9B013B0A9397
S214080730EEE700BF0D060800FD050800F0B589B015
S21408074006460C460592002581E0A21C01238BE094
S214080750013443F002032278302AF9D0002206E05A
S21408076002EB82025000A1F13002024401342178E3
S214080770A1F13000C0B20928F2D9732918D064292B
S21408078022D078292FD058293CD0752949D06329FA
S2140807905CD10599081D059009788DF81C10002174
S2140807A08DF81D1007A93046344FB84705444DE06C
S2140807B00599081D0590096821B130462F4FB8479E
S2140807C0054443E02E49F8E70599081D0590096891
S2140807D0612002900193009201230A223046294F95
S2140807E0B847054432E00599081D05900968612058
S2140807F0029001930092002310223046214FB847FA
S214080800054423E00599081D0590096841200290D3
S214080810019300920023102230461A4FB847054429
S21408082014E00599081D0590096861200290019357
S214080830009200230A223046124FB847054405E0C6
S214080840144621783046104B9847013501342378F2
S21408085063B1252BF5D1621C63783BB1252BEFD00D
S2140808602D2B3FF472AF0023144674E716B1336895
S21408087000221A70284609B0F0BD00BF0D06080011
S214080880EC0B080091060800FD0508000FB400B53B
S21408089083B004AA52F8041B01920020034B984721
S2140808A003B05DF804EB04B0704700BF3D070800CE
S2140808B0084B5A6842F400225A601A6F42F4002223
S2140808C01A67054AD2F8003143F01003C2F800311F
S2140808D0704700BF00120E4000060E40194BD3F8B2
S2140808E0E420C3F8E420D3F8E42042F02002C3F85A
S2140808F0E4205A6842F020025A60D3F8A02242F058
S2140809000C02C3F8A022D3F8A02262F44072C3F8FF
S214080910A0221A681A601A6842F428121A601A681E
S2140809201A60D3F8AC2242F41C4242F04002C3F8E4
S214080930AC22D3F8A42242F43B6242F00802C3F881
S214080940A422704700400940164B00221A705A70BD
S214080950154B4FF44071596459601A6F186F02406E
S21408096022F440721A6759664FF48072A3F5006342
S2140809701A6103F50073AC21196040F2232119624D
S2140809804FF40061596040F20221C3F820114FF07D
S214080990FF31D960E121996004490A6050221A6043
S2140809A0704700BF50040020000E0E4000E100E033
S2140809B0074B5B6913F0020F08D0054BD861044B50
S2140809C05B6913F4007FFAD0002070470120704757
S2140809D000080E4008B5154B5B6913F0E00F03D00E
S2140809E04FF4A871114A116013F0010F12D0104885
S2140809F04278531C594203F03F0301F03F0158BFA9
S214080A004B4201788B4206D00849886908490A444F
S214080A1090704B7008BD0748074B9847044B5978A9
S214080A20024A92690B449A7008BD00BF00080E403F
S214080A3050040020F40B08008D08080070B50F4E0F
S214080A400F4D761BB61018BF002405D0013455F894
S214080A50043B9847A642F9D10A4E0B4D00F0DCF845
S214080A60761BB61018BF002406D0013455F8043B90
S214080A709847A642F9D170BD70BD00BF240C080087
S214080A80240C08002C0C0800240C0800024B13B198
S214080A90024800F005B8704700000000AD0A0800DC
S214080AA0002301461A46184600F01EB838B50A4C08
S214080AB00A4D641BA4100AD004F18043013B05EBE1
S214080AC08305013C55F804399847002CF9D1BDE850
S214080AD0384000F0ABB800BF3C0C0800380C0800E3
S214080AE0704700BF704700BF2DE9F8432C4D0646F7
S214080AF0286898460F469146FFF7F2FF294B1C6870
S214080B00D4F84831002B3ED05A681F2A1CDC02F164
S214080B10010E76B1012103EB8204C4F88890D3F85D
S214080B20880191400843022EC3F88801C4F808815A
S214080B3023D00232C3F804E0286843F82270FFF78F
S214080B40D1FF0020BDE8F883174B0BB34FF4C870ED
S214080B50AFF300800346D8B10020D4F848114FF010
S214080B60010E586019600246C4F84831C3F8880177
S214080B70C3F88C01002EDCD0CCE7D3F88C010143F7
S214080B80C3F88C11D5E704F5A673C4F84831BBE75B
S214080B902868FFF7A7FF4FF0FF30BDE8F88300BFCF
S214080BA030040020140C08000000000043414E30BA
S214080BB0206D657373616765206172726976656416
S214080BC020696E206E6F6E2D75736564206D616981
S214080BD06C626F780A0D0000474F414C2120736302
S214080BE06F7265203D2025640A000000286E756C2B
S214080BF06C2900004552523A20554152542052580A
S214080C00206275666665722069732066756C6C0A64
S214080C100D00000008000020F8B500BFF8BC08BCAE
S214080C209E4670478D0A080019010800F8B500BFEF
S210080C30F8BC08BC9E467047F50008009B
S214080C3C00093D000000000000000000F40200203F
S214080C4C5C030020C4030020000000000000000025
S214080C5C000000000000000000000000000000007B
S214080C6C000000000000000000000000000000006B
S214080C7C000000000000000000000000000000005B
S214080C8C000000000000000000000000000000004B
S214080C9C000000000000000000000000000000003B
S214080CAC000000000000000000000000000000002B
S214080CBC000000000000000000000000000000001B
S214080CCC000000000000000000000000000000000B
S214080CDC00000000000000000000000000000000FB
S214080CEC01000000000000000E33CDAB34126DE698
S214080CFCECDE05000B000000000000000000000001
S214080D0C00000000000000000000000000000000CA
S214080D1C00000000000000000000000000000000BA
S214080D2C00000000000000000000000000000000AA
S214080D3C000000000000000000000000000000009A
S20808106C94040020BB
S804080000F3
