:0200000280007C
:10000000C8080020ED030800E9030800E903080020
:10001000E9030800E9030800E90308000000000004
:10002000000000000000000000000000E9030800DC
:10003000E903080000000000E9030800E9030800E4
:10004000E9030800E9030800E9030800E9030800E0
:10005000E9030800E9030800E9030800E9030800D0
:10006000A50B0800E903080000000000E9030800F0
:10007000E9030800E9030800E903080000000000A4
:1000800000000000E9030800E9030800E903080094
:10009000E9030800E9030800E9030800E903080090
:1000A000E903080000000000E9030800E903080074
:1000B000E9030800E9030800E9030800E903080070
:1000C000E9030800E9030800E9030800E903080060
:1000D000E9030800E9030800E9030800E903080050
:1000E000E9030800E9030800E9030800E902080041
:1000F000E903080010B5054C237833B9044B13B15C
:100100000448AFF300800123237010BD34040020A5
:1001100000000000001108000C4B43B10C4810B562
:100120000C49AFF300800C48036823B910BD0A489E
:10013000036833B97047094B002BF7D0BDE8104076
:100140001847064B002BF5D0184700BF00000000F1
:100150000011080038040020001108000000000011
:10016000F0B45718082FD4BF00230123082998BFE3
:10017000082A5CD80D46002B59D12E4A136823F06B
:100180000103136013692C4B4FF440745C641C6FC3
:1001900024F003041C6703245C605C66A3F5006321
:1001A000264CC3F80C41D3F8004144F40064C3F872
:1001B00000415061002419E01E4801F110035B0169
:1001C000C2180026566000EB41124FF00056C2F8EC
:1001D00008624FF08076C650D2F81C3243F4000318
:1001E000C2F81C3201238B401C430131B942E3DDCC
:1001F00000230DE00F4901EB43124FF00050C2F80D
:10020000080203F1100252014FF040708850013390
:10021000AB42EFDB074B5C604FF40061084A516072
:100220001A6842F001021A600020F0BC70470120F9
:10023000FBE700BF00400B40000E0E402B100010EB
:1002400000E100E008B502220121014B984708BDFA
:10025000610108004B0103F1402303F53023D3F87B
:10026000103213F4000F33D070B44B0103F140236C
:1002700003F53023D3F81442D3F81822D3F80852E8
:10028000C5F38A450580D3F81052C5F30345857040
:10029000002303E0C618F270120A0133AB4205DAFC
:1002A000032BF7DCC618F470240AF6E7094B01F1BA
:1002B000100252014FF08070985003EB4111D1F8B9
:1002C0001C3243F40003C1F81C32002070BC70479C
:1002D0000120704700400B40CB7803600B794360EE
:1002E0004B7983607047000010B584B0174B1C69D0
:1002F00014F0060F1DD014F0020F08D114F0040FF3
:100300000AD0022101A8124B9847002309E00121DD
:1003100001A80F4B9847F8E70E480F4B9847F4E7B2
:1003200001339DF806209342FADB01A90B480C4BE0
:10033000984714F0010F02D00122044B9A604FF449
:100340000062084BC3F8842104B010BD00400B408C
:10035000550208001C100800DD09080050040020A8
:10036000D902080000E100E00A4AD2F8003143F067
:100370004003C2F80031084B1A6842F001021A60CB
:100380005A6842F480325A601A6942F002021A61D5
:10039000704700BF00060E4000800C40074B1968F4
:1003A00040F2076211431960196911431961196B11
:1003B00011431963196F0A431A67704700140E40FE
:1003C000084B1A6842F4FF721A605A6942F4FF72CD
:1003D0005A611A6F42F4FF721A671A6E42F4FF7282
:1003E0001A66704700120E40FEE7000008B5114B78
:1003F000114A9A4209D00F4B0F4A03E01168196065
:10040000043304320D498B42F8D30D4B02E0002235
:100410001A6004330B4A9342F9D30B4B23F0604329
:1004200023F07F03094A9360094B9847094B98478B
:10043000FEE700BF00000020001108003404002087
:1004400034040020C40400200000080000ED00E097
:10045000AD0E0800B50508004FF48063204A136014
:1004600002F5007213601F4B1B6A13F0807F07D1E7
:100470001D4A1C4B1A621B4B9B6E13F0010FFAD0E6
:100480001A4A184B1A62174B9B6E13F4803FFAD02E
:10049000144A136B23F0030343F001031363114B5E
:1004A0009B6E13F0080FFAD0114A0E4B9A620D4B57
:1004B0009B6E13F0020FFAD011220A4B1A63094BFC
:1004C0009B6E13F0080FFAD01222064B1A63054BED
:1004D0009B6E13F0080FFAD0064A074B1A6070475C
:1004E000000A0E4000060E400908370009083701CF
:1004F000013F0D2000BD010500000020064A5368A1
:1005000043F480235360A2F52062D2F8003143F017
:100510002003C2F80031704700100E400F4B1A68DC
:1005200042F001021A60D3F8E42062F00102C3F83D
:10053000E4201A6942F400621A615A6842F010021B
:100540005A605A6842F080025A605A6A42F4006265
:100550005A621A6C42F080721A64704700000C40B4
:10056000044B1B6AC3F30B03C72B01DD012070474B
:100570000020704700000C4038B505460C46094B7A
:100580009847236803442360074A934200DD00B183
:1005900038BD2968013129600448054B984700237C
:1005A0002360F5E76105080040420F00481008008D
:1005B000DD09080010B584B0204B1A6842F4C0125F
:1005C0001A601A6942F4C0121A611D4B98471D4BFC
:1005D00098471D481D4B98474FF400421C4B5A60EA
:1005E0001C4B98471C4B98471C4B98471C4B9847F3
:1005F0001C4B98471C4B98471C4B98470023039370
:100600000293ADF80630FF2401E00024641002A933
:1006100003A8174B9847174B9847174B9847174B0A
:100620009847ADF8060021461548164B9847164BDB
:10063000DB6B002BE9D00124E8E700BF000E0E4081
:1006400059040800190B080065012900450208003B
:10065000501A0E40010A08002D0A0800FD04080087
:100660001D050800690308009D030800C103080078
:10067000790508008D060800C90A0800010708006E
:100680005C100800DD09080000120E400B4B5B688F
:100690007F2B09DD0A4A136B43F48063136340F632
:1006A000FF12084B1A627047054A536B43F480638C
:1006B000536340F6FF12034B1A6270475004002048
:1006C00000140E4000800C4010B582B004464FF07C
:1006D0007E5301930023009307E001980649074BDE
:1006E00098470190009B01330093009BB3EB842F4C
:1006F000F3DB02B010BD00BFCDCC8C3F0D0C080069
:1007000008B50F4B5A6B42F001025A635A6B42F024
:1007100004025A6314200B4B98470B4BDB6B084ABF
:10072000136B43F0040313631420064B9847064BE6
:10073000DB6B034A136B43F001031363002008BD16
:1007400000140E40C906080000120E4008B5C8B2D9
:10075000014B984708BD00BF810B08002DE9F0410F
:1007600007460E46151E02DD0A46002104E04FF042
:1007700020080EE00131013210780028FAD1A94298
:1007800001DA6D1A00E0002513F0020F06D14FF0D8
:10079000200813F001040AD0002410E04FF03008C4
:1007A000F7E7414638460D4B98470134013D002D8F
:1007B000F7DC04E03846094B9847013401363178BC
:1007C0000029F7D105E041463846044B98470134EB
:1007D000013D002DF7DC2046BDE8F0814D07080003
:1007E000F0B585B007460C9851B11E460C4613B1C2
:1007F0000A2A12D0002604AD002305F8013D18E0B6
:1008000030238DF8043000238DF805300B9B0A9AB5
:1008100001A938461B4CA04729E0002901DB00262E
:10082000E9E74C420126E6E7303305F8013DB4FB29
:10083000F2F44CB1B4FBF2F302FB1343092BF3DDEA
:10084000A0F13A010B44EFE756B10A9B1BB10B9B99
:1008500013F0020F0DD12D2305F8013C013D0026B8
:100860000B9B0A9A29463846064CA047304405B0EF
:10087000F0BD2D213846044B98470A9B013B0A9353
:10088000EEE700BF5D0708004D070800F0B589B02E
:1008900006460C460592002581E0A21C01238BE050
:1008A000013443F002032278302AF9D0002206E016
:1008B00002EB82025000A1F130020244013421789F
:1008C000A1F13000C0B20928F2D9732918D06429E7
:1008D00022D078292FD058293CD0752949D06329B6
:1008E0005CD10599081D059009788DF81C10002130
:1008F0008DF81D1007A93046344FB84705444DE028
:100900000599081D0590096821B130462F4FB84759
:10091000054443E02E49F8E70599081D059009684C
:10092000612002900193009201230A223046294F50
:10093000B847054432E00599081D05900968612013
:10094000029001930092002310223046214FB847B5
:10095000054423E00599081D05900968412002908F
:10096000019300920023102230461A4FB8470544E5
:1009700014E00599081D0590096861200290019313
:10098000009200230A223046124FB847054405E082
:10099000144621783046104B9847013501342378AE
:1009A00063B1252BF5D1621C63783BB1252BEFD0C9
:1009B0002D2B3FF472AF0023144674E716B1336851
:1009C00000221A70284609B0F0BD00BF5D0708007C
:1009D00060100800E10708004D0708000FB400B5DB
:1009E00083B004AA52F8041B01920020034B9847DD
:1009F00003B05DF804EB04B0704700BF8D08080039
:100A0000084B5A6842F400225A601A6F42F40022DE
:100A10001A67054AD2F8003143F01003C2F80031DA
:100A2000704700BF00120E4000060E40194BD3F86D
:100A3000E420C3F8E420D3F8E42042F02002C3F815
:100A4000E4205A6842F020025A60D3F8A02242F013
:100A50000C02C3F8A022D3F8A02262F44072C3F8BB
:100A6000A0221A681A601A6842F428121A601A68DA
:100A70001A60D3F8AC2242F41C4242F04002C3F8A0
:100A8000AC22D3F8A42242F43B6242F00802C3F83D
:100A9000A42270470040094008B5A0F5E163B3F512
:100AA000166F06D8054BD3F8A8221043C3F8A80246
:100AB00008BD0348034B984708BD00BF00400940EC
:100AC00068100800DD09080010B50D4BD3F8A442EA
:100AD0000C4B1B683BB10B4B1B68012B09D020460C
:100AE000094B984710BD643421460848084B984785
:100AF000F1E7643C21460748054B9847EFE700BF04
:100B00000040094050040020990A080078100800AD
:100B1000DD09080098100800164B00221A705A7060
:100B2000154B4FF44071596459601A6F186F0240A9
:100B300022F440721A6759664FF48072A3F500637D
:100B40001A6103F50073AC21196040F22321196288
:100B50004FF40061596040F20221C3F820114FF0B8
:100B6000FF31D960E121996004490A6050221A607E
:100B7000704700BF5C040020000E0E4000E100E062
:100B8000074B5B6913F0020F08D0054BD861044B8B
:100B90005B6913F4007FFAD0002070470120704792
:100BA00000080E4008B5154B5B6913F0E00F03D049
:100BB0004FF4A871114A116013F0010F12D01048C0
:100BC0004278531C594203F03F0301F03F0158BFE4
:100BD0004B4201788B4206D00849886908490A448B
:100BE00090704B7008BD0748074B9847044B5978E5
:100BF000024A92690B449A7008BD00BF00080E407B
:100C00005C040020B8100800DD0908004FF0FF0C5C
:100C10001CEAD0521EBF1CEAD15392EA0C0F93EA91
:100C20000C0F6FD01A4480EA010C400218BF5FEA33
:100C300041211ED04FF0006343EA501043EA5111A6
:100C4000A0FB01310CF00040B1F5000F3EBF4900A0
:100C500041EAD3715B0040EA010062F17F02FD2AA4
:100C60001DD8B3F1004F40EBC25008BF20F0010087
:100C7000704790F0000F0CF0004C08BF49024CEA9E
:100C8000502040EA51207F3AC2BFD2F1FF0340EA30
:100C9000C250704740F400004FF00003013A5DDCA1
:100CA00012F1190FDCBF00F000407047C2F10002E2
:100CB000410021FA02F1C2F1200200FA02FC5FEACF
:100CC000310040F1000053EA4C0308BF20EADC7019
:100CD000704792F0000F00F0004C02BF400010F48B
:100CE000000F013AF9D040EA0C0093F0000F01F038
:100CF000004C02BF490011F4000F013BF9D041EA5A
:100D00000C018FE70CEAD15392EA0C0F18BF93EA5B
:100D10000C0F0AD030F0004C18BF31F0004CD8D185
:100D200080EA010000F00040704790F0000F17BF0C
:100D300090F0004F084691F0000F91F0004F14D052
:100D400092EA0C0F01D142020FD193EA0C0F03D1AA
:100D50004B0218BF084608D180EA010000F00040AD
:100D600040F0FE4040F40000704740F0FE4040F488
:100D7000400070474FF0FF0C1CEAD0521EBF1CEA27
:100D8000D15392EA0C0F93EA0C0F69D0A2EB030245
:100D900080EA010C49024FEA402037D04FF08053DF
:100DA00043EA111143EA10130CF000408B4238BFA4
:100DB0005B0042F17D024FF4000C8B4224BF5B1AB2
:100DC00040EA0C00B3EB510F24BFA3EB510340EA00
:100DD0005C00B3EB910F24BFA3EB910340EA9C00AE
:100DE000B3EBD10F24BFA3EBD10340EADC001B011E
:100DF00018BF5FEA1C1CE0D1FD2A3FF650AF8B42C2
:100E000040EBC25008BF20F0010070470CF0004CCE
:100E10004CEA50207F32C2BFD2F1FF0340EAC250F9
:100E2000704740F400004FF00003013A37E792F0BA
:100E3000000F00F0004C02BF400010F4000F013A18
:100E4000F9D040EA0C0093F0000F01F0004C02BF13
:100E5000490011F4000F013BF9D041EA0C0195E77C
:100E60000CEAD15392EA0C0F08D142027FF47DAF15
:100E700093EA0C0F7FF470AF084676E793EA0C0F05
:100E800004D14B023FF44CAF08466EE730F0004C03
:100E900018BF31F0004CCAD130F000427FF45CAF93
:100EA00031F000437FF43CAF5FE700BF70B50F4EF9
:100EB0000F4D761BB61018BF002405D0013455F82D
:100EC000043B9847A642F9D10A4E0B4D00F006F9B3
:100ED000761BB61018BF002406D0013455F8043B29
:100EE0009847A642F9D170BD70BD00BFE810080058
:100EF000E8100800F0100800E8100800024B13B1D9
:100F0000024800F005B87047000000001D0F0800FF
:100F1000002301461A46184600F01EB838B50A4CA0
:100F20000A4D641BA4100AD004F18043013B05EB79
:100F30008305013C55F804399847002CF9D1BDE8E8
:100F4000384000F0D5B800BF00110800FC100800C0
:100F5000704700BF704700BF2DE9F8432C4D06468F
:100F6000286898460F469146FFF7F2FF294B1C6808
:100F7000D4F84831002B3ED05A681F2A1CDC02F1FD
:100F8000010E76B1012103EB8204C4F88890D3F8F6
:100F9000880191400843022EC3F88801C4F80881F3
:100FA00023D00232C3F804E0286843F82270FFF728
:100FB000D1FF0020BDE8F883174B0BB34FF4C87086
:100FC000AFF300800346D8B10020D4F848114FF0A9
:100FD000010E586019600246C4F84831C3F8880110
:100FE000C3F88C01002EDCD0CCE7D3F88C01014390
:100FF000C3F88C11D5E704F5A673C4F84831BBE7F4
:101000002868FFF7A7FF4FF0FF30BDE8F88300BF67
:1010100030040020D81008000000000043414E308A
:10102000206D6573736167652061727269766564AE
:1010300020696E206E6F6E2D75736564206D616919
:101040006C626F780A0D0000474F414C212073639A
:101050006F7265203D2025640A00000025640A00A7
:10106000286E756C6C290000456E64206F662052F6
:10107000616E676520000000696E6372656173656B
:10108000642064757479206379636C6520746F20C3
:101090002564200A00000000646563726561736561
:1010A000642064757479206379636C6520746F20A3
:1010B0002564200A000000004552523A2055415252
:1010C00054205258206275666665722069732066E6
:1010D000756C6C0A0D00000008000020F8B500BF18
:1010E000F8BC08BC9E467047FD0E080019010800B8
:1010F000F8B500BFF8BC08BC9E467047F500080074
:1011000000093D000000000000000000F402002083
:101110005C030020C4030020000000000000000069
:1011200000000000000000000000000000000000BF
:1011300000000000000000000000000000000000AF
:10114000000000000000000000000000000000009F
:10115000000000000000000000000000000000008F
:10116000000000000000000000000000000000007F
:10117000000000000000000000000000000000006F
:10118000000000000000000000000000000000005F
:10119000000000000000000000000000000000004F
:1011A000000000000000000000000000000000003F
:1011B00001000000000000000E33CDAB34126DE6DC
:1011C000ECDE05000B000000000000000000000045
:1011D000000000000000000000000000000000000F
:1011E00000000000000000000000000000000000FF
:1011F00000000000000000000000000000000000EF
:1012000000000000000000000000000000000000DE
:04153000A0040020F3
:040000038000000079
:00000001FF
